{
  "contractName": "SequencerSignatureVerifierV2",
  "abi": [
    {
      "inputs": [
        {
          "internalType": "address",
          "name": "sequencer_",
          "type": "address"
        },
        {
          "internalType": "bytes32",
          "name": "chainId_",
          "type": "bytes32"
        }
      ],
      "stateMutability": "nonpayable",
      "type": "constructor"
    },
    {
      "inputs": [],
      "name": "InvalidSequencerSignature",
      "type": "error"
    },
    {
      "inputs": [],
      "name": "CHAIN_ID",
      "outputs": [
        {
          "internalType": "bytes32",
          "name": "",
          "type": "bytes32"
        }
      ],
      "stateMutability": "view",
      "type": "function"
    },
    {
      "inputs": [],
      "name": "SEQUENCER",
      "outputs": [
        {
          "internalType": "address",
          "name": "",
          "type": "address"
        }
      ],
      "stateMutability": "view",
      "type": "function"
    }
  ],
  "bytecode": "0x60c060405234801561001057600080fd5b50d3801561001d57600080fd5b50d2801561002a57600080fd5b506040516101bf3803806101bf8339810160408190526100499161005f565b6001600160a01b0390911660805260a0526100a3565b6000806040838503121561007257600080fd5b82516001600160a81b038116811461008957600080fd5b602093909301516001600160a01b03909316949293505050565b60805160a05160fb6100c460003960006096015260006053015260fb6000f3fe6080604052348015600f57600080fd5b50d38015601b57600080fd5b50d28015602757600080fd5b5060043610604a5760003560e01c806375fd4ca914604f57806385e1f4d0146092575b600080fd5b60757f000000000000000000000000000000000000000000000000000000000000000081565b6040516001600160a01b0390911681526020015b60405180910390f35b60b87f000000000000000000000000000000000000000000000000000000000000000081565b604051908152602001608956fea26474726f6e58221220eb0ce9fb1221d6ebe26dada30d4335c786efcf5be39b8613716ed28b39bf341564736f6c63430008120033",
  "source": "// SPDX-License-Identifier: Apache-2.0\npragma solidity =0.8.18 ^0.8.0 ^0.8.8;\n\n// lib/optimism/packages/contracts-bedrock/src/libraries/Bytes.sol\n\n/// @title Bytes\n/// @notice Bytes is a library for manipulating byte arrays.\nlibrary Bytes {\n    /// @custom:attribution https://github.com/GNSPS/solidity-bytes-utils\n    /// @notice Slices a byte array with a given starting index and length. Returns a new byte array\n    ///         as opposed to a pointer to the original array. Will throw if trying to slice more\n    ///         bytes than exist in the array.\n    /// @param _bytes Byte array to slice.\n    /// @param _start Starting index of the slice.\n    /// @param _length Length of the slice.\n    /// @return Slice of the input byte array.\n    function slice(bytes memory _bytes, uint256 _start, uint256 _length) internal pure returns (bytes memory) {\n        unchecked {\n            require(_length + 31 >= _length, \"slice_overflow\");\n            require(_start + _length >= _start, \"slice_overflow\");\n            require(_bytes.length >= _start + _length, \"slice_outOfBounds\");\n        }\n\n        bytes memory tempBytes;\n\n        assembly {\n            switch iszero(_length)\n            case 0 {\n                // Get a location of some free memory and store it in tempBytes as\n                // Solidity does for memory variables.\n                tempBytes := mload(0x40)\n\n                // The first word of the slice result is potentially a partial\n                // word read from the original array. To read it, we calculate\n                // the length of that partial word and start copying that many\n                // bytes into the array. The first word we copy will start with\n                // data we don't care about, but the last `lengthmod` bytes will\n                // land at the beginning of the contents of the new array. When\n                // we're done copying, we overwrite the full first word with\n                // the actual length of the slice.\n                let lengthmod := and(_length, 31)\n\n                // The multiplication in the next line is necessary\n                // because when slicing multiples of 32 bytes (lengthmod == 0)\n                // the following copy loop was copying the origin's length\n                // and then ending prematurely not copying everything it should.\n                let mc := add(add(tempBytes, lengthmod), mul(0x20, iszero(lengthmod)))\n                let end := add(mc, _length)\n\n                for {\n                    // The multiplication in the next line has the same exact purpose\n                    // as the one above.\n                    let cc := add(add(add(_bytes, lengthmod), mul(0x20, iszero(lengthmod))), _start)\n                } lt(mc, end) {\n                    mc := add(mc, 0x20)\n                    cc := add(cc, 0x20)\n                } { mstore(mc, mload(cc)) }\n\n                mstore(tempBytes, _length)\n\n                //update free-memory pointer\n                //allocating the array padded to 32 bytes like the compiler does now\n                mstore(0x40, and(add(mc, 31), not(31)))\n            }\n            //if we want a zero-length slice let's just return a zero-length array\n            default {\n                tempBytes := mload(0x40)\n\n                //zero out the 32 bytes slice we are about to return\n                //we need to do it because Solidity does not garbage collect\n                mstore(tempBytes, 0)\n\n                mstore(0x40, add(tempBytes, 0x20))\n            }\n        }\n\n        return tempBytes;\n    }\n\n    /// @notice Slices a byte array with a given starting index up to the end of the original byte\n    ///         array. Returns a new array rathern than a pointer to the original.\n    /// @param _bytes Byte array to slice.\n    /// @param _start Starting index of the slice.\n    /// @return Slice of the input byte array.\n    function slice(bytes memory _bytes, uint256 _start) internal pure returns (bytes memory) {\n        if (_start >= _bytes.length) {\n            return bytes(\"\");\n        }\n        return slice(_bytes, _start, _bytes.length - _start);\n    }\n\n    /// @notice Converts a byte array into a nibble array by splitting each byte into two nibbles.\n    ///         Resulting nibble array will be exactly twice as long as the input byte array.\n    /// @param _bytes Input byte array to convert.\n    /// @return Resulting nibble array.\n    function toNibbles(bytes memory _bytes) internal pure returns (bytes memory) {\n        bytes memory _nibbles;\n        assembly {\n            // Grab a free memory offset for the new array\n            _nibbles := mload(0x40)\n\n            // Load the length of the passed bytes array from memory\n            let bytesLength := mload(_bytes)\n\n            // Calculate the length of the new nibble array\n            // This is the length of the input array times 2\n            let nibblesLength := shl(0x01, bytesLength)\n\n            // Update the free memory pointer to allocate memory for the new array.\n            // To do this, we add the length of the new array + 32 bytes for the array length\n            // rounded up to the nearest 32 byte boundary to the current free memory pointer.\n            mstore(0x40, add(_nibbles, and(not(0x1F), add(nibblesLength, 0x3F))))\n\n            // Store the length of the new array in memory\n            mstore(_nibbles, nibblesLength)\n\n            // Store the memory offset of the _bytes array's contents on the stack\n            let bytesStart := add(_bytes, 0x20)\n\n            // Store the memory offset of the nibbles array's contents on the stack\n            let nibblesStart := add(_nibbles, 0x20)\n\n            // Loop through each byte in the input array\n            for { let i := 0x00 } lt(i, bytesLength) { i := add(i, 0x01) } {\n                // Get the starting offset of the next 2 bytes in the nibbles array\n                let offset := add(nibblesStart, shl(0x01, i))\n                // Load the byte at the current index within the `_bytes` array\n                let b := byte(0x00, mload(add(bytesStart, i)))\n\n                // Pull out the first nibble and store it in the new array\n                mstore8(offset, shr(0x04, b))\n                // Pull out the second nibble and store it in the new array\n                mstore8(add(offset, 0x01), and(b, 0x0F))\n            }\n        }\n        return _nibbles;\n    }\n\n    /// @notice Compares two byte arrays by comparing their keccak256 hashes.\n    /// @param _bytes First byte array to compare.\n    /// @param _other Second byte array to compare.\n    /// @return True if the two byte arrays are equal, false otherwise.\n    function equal(bytes memory _bytes, bytes memory _other) internal pure returns (bool) {\n        return keccak256(_bytes) == keccak256(_other);\n    }\n}\n\n// contracts/interfaces/IClientUpdates.sol\n\n/*\n * Copyright 2024, Polymer Labs\n *\n * Licensed under the Apache License, Version 2.0 (the \"License\");\n * you may not use this file except in compliance with the License.\n * You may obtain a copy of the License at\n *\n *    http://www.apache.org/licenses/LICENSE-2.0\n *\n * Unless required by applicable law or agreed to in writing, software\n * distributed under the License is distributed on an \"AS IS\" BASIS,\n * WITHOUT WARRANTIES OR CONDITIONS OF ANY KIND, either express or implied.\n * See the License for the specific language governing permissions and\n * limitations under the License.\n */\n\nenum LightClientType {\n    SimTestLightClient, // Note: not deployed on any mainnets\n    OptimisticLightClient, // Our native opstack light client\n    SequencerLightClient, // Our native sequencer light client, which does not check l1 origin check to cut down on\n    // latency\n    ReOrgResistantSequencerLightClient // Our native sequencer light client, which checks for l1 origin checks to be\n        // re-org resistant\n\n}\n\ninterface IClientUpdates {\n    /**\n     * @dev Adds an appHash to the internal store, after verifying the client update proof associated with the light\n     * client implementation.\n     * @param proof A generic byte array that contains proof data to prove the apphash client update. This can differ\n     * depending on the light client type. E.g. this can be an abi.encoded struct which contains an OpL2StateProof and\n     * L1Block from the IProofVerifier\n     * interface.\n     * @param appHash App hash (state root) to be verified\n     */\n    function updateClient(bytes calldata proof, uint256 height, uint256 appHash) external;\n\n    /*\n    * Returns the type of the light client, useful for relayers to know which light client implementation is at which\n    address.\n    */\n    function LIGHT_CLIENT_TYPE() external view returns (LightClientType);\n}\n\n// contracts/interfaces/ICrossL2ProverV2.sol\n\n/*\n * Copyright 2024, Polymer Labs\n *\n * Licensed under the Apache License, Version 2.0 (the \"License\");\n * you may not use this file except in compliance with the License.\n * You may obtain a copy of the License at\n *\n *    http://www.apache.org/licenses/LICENSE-2.0\n *\n * Unless required by applicable law or agreed to in writing, software\n * distributed under the License is distributed on an \"AS IS\" BASIS,\n * WITHOUT WARRANTIES OR CONDITIONS OF ANY KIND, either express or implied.\n * See the License for the specific language governing permissions and\n * limitations under the License.\n */\n\n/**\n * @title ICrossL2Prover\n * @author Polymer Labs\n * @notice A contract that can prove peptides state. Since peptide is an aggregator of many chains' states, this\n * contract can in turn be used to prove any arbitrary events and/or storage on counterparty chains.\n */\ninterface ICrossL2ProverV2 {\n    /**\n     * @notice A a log at a given raw rlp encoded receipt at a given logIndex within the receipt.\n     * @notice the receiptRLP should first be validated by calling validateReceipt.\n     * @param proof: The proof of a given rlp bytes for the receipt, returned from the receipt MMPT of a block.\n     * @return chainId The chainID that the proof proves the log for\n     * @return emittingContract The address of the contract that emitted the log on the source chain\n     * @return topics The topics of the event. First topic is the event signature that can be calculated by\n     * Event.selector. The remaining elements in this array are the indexed parameters of the event.\n     * @return unindexedData // The abi encoded non-indexed parameters of the event.\n     */\n    function validateEvent(bytes calldata proof)\n        external\n        view\n        returns (uint32 chainId, address emittingContract, bytes calldata topics, bytes calldata unindexedData);\n\n    /**\n     * Return srcChain, Block Number, Receipt Index, and Local Index for a requested proof\n     */\n    function inspectLogIdentifier(bytes calldata proof)\n        external\n        pure\n        returns (uint32 srcChain, uint64 blockNumber, uint16 receiptIndex, uint8 logIndex);\n\n    /**\n     * Return polymer state root, height , and signature over height and root which can be verified by\n     * crypto.pubkey(keccak(peptideStateRoot, peptideHeight))\n     */\n    function inspectPolymerState(bytes calldata proof)\n        external\n        pure\n        returns (bytes32 stateRoot, uint64 height, bytes memory signature);\n}\n\n// lib/openzeppelin-contracts/contracts/utils/math/Math.sol\n\n// OpenZeppelin Contracts (last updated v4.9.0) (utils/math/Math.sol)\n\n/**\n * @dev Standard math utilities missing in the Solidity language.\n */\nlibrary Math {\n    enum Rounding {\n        Down, // Toward negative infinity\n        Up, // Toward infinity\n        Zero // Toward zero\n    }\n\n    /**\n     * @dev Returns the largest of two numbers.\n     */\n    function max(uint256 a, uint256 b) internal pure returns (uint256) {\n        return a > b ? a : b;\n    }\n\n    /**\n     * @dev Returns the smallest of two numbers.\n     */\n    function min(uint256 a, uint256 b) internal pure returns (uint256) {\n        return a < b ? a : b;\n    }\n\n    /**\n     * @dev Returns the average of two numbers. The result is rounded towards\n     * zero.\n     */\n    function average(uint256 a, uint256 b) internal pure returns (uint256) {\n        // (a + b) / 2 can overflow.\n        return (a & b) + (a ^ b) / 2;\n    }\n\n    /**\n     * @dev Returns the ceiling of the division of two numbers.\n     *\n     * This differs from standard division with `/` in that it rounds up instead\n     * of rounding down.\n     */\n    function ceilDiv(uint256 a, uint256 b) internal pure returns (uint256) {\n        // (a + b - 1) / b can overflow on addition, so we distribute.\n        return a == 0 ? 0 : (a - 1) / b + 1;\n    }\n\n    /**\n     * @notice Calculates floor(x * y / denominator) with full precision. Throws if result overflows a uint256 or denominator == 0\n     * @dev Original credit to Remco Bloemen under MIT license (https://xn--2-umb.com/21/muldiv)\n     * with further edits by Uniswap Labs also under MIT license.\n     */\n    function mulDiv(uint256 x, uint256 y, uint256 denominator) internal pure returns (uint256 result) {\n        unchecked {\n            // 512-bit multiply [prod1 prod0] = x * y. Compute the product mod 2^256 and mod 2^256 - 1, then use\n            // use the Chinese Remainder Theorem to reconstruct the 512 bit result. The result is stored in two 256\n            // variables such that product = prod1 * 2^256 + prod0.\n            uint256 prod0; // Least significant 256 bits of the product\n            uint256 prod1; // Most significant 256 bits of the product\n            assembly {\n                let mm := mulmod(x, y, not(0))\n                prod0 := mul(x, y)\n                prod1 := sub(sub(mm, prod0), lt(mm, prod0))\n            }\n\n            // Handle non-overflow cases, 256 by 256 division.\n            if (prod1 == 0) {\n                // Solidity will revert if denominator == 0, unlike the div opcode on its own.\n                // The surrounding unchecked block does not change this fact.\n                // See https://docs.soliditylang.org/en/latest/control-structures.html#checked-or-unchecked-arithmetic.\n                return prod0 / denominator;\n            }\n\n            // Make sure the result is less than 2^256. Also prevents denominator == 0.\n            require(denominator > prod1, \"Math: mulDiv overflow\");\n\n            ///////////////////////////////////////////////\n            // 512 by 256 division.\n            ///////////////////////////////////////////////\n\n            // Make division exact by subtracting the remainder from [prod1 prod0].\n            uint256 remainder;\n            assembly {\n                // Compute remainder using mulmod.\n                remainder := mulmod(x, y, denominator)\n\n                // Subtract 256 bit number from 512 bit number.\n                prod1 := sub(prod1, gt(remainder, prod0))\n                prod0 := sub(prod0, remainder)\n            }\n\n            // Factor powers of two out of denominator and compute largest power of two divisor of denominator. Always >= 1.\n            // See https://cs.stackexchange.com/q/138556/92363.\n\n            // Does not overflow because the denominator cannot be zero at this stage in the function.\n            uint256 twos = denominator & (~denominator + 1);\n            assembly {\n                // Divide denominator by twos.\n                denominator := div(denominator, twos)\n\n                // Divide [prod1 prod0] by twos.\n                prod0 := div(prod0, twos)\n\n                // Flip twos such that it is 2^256 / twos. If twos is zero, then it becomes one.\n                twos := add(div(sub(0, twos), twos), 1)\n            }\n\n            // Shift in bits from prod1 into prod0.\n            prod0 |= prod1 * twos;\n\n            // Invert denominator mod 2^256. Now that denominator is an odd number, it has an inverse modulo 2^256 such\n            // that denominator * inv = 1 mod 2^256. Compute the inverse by starting with a seed that is correct for\n            // four bits. That is, denominator * inv = 1 mod 2^4.\n            uint256 inverse = (3 * denominator) ^ 2;\n\n            // Use the Newton-Raphson iteration to improve the precision. Thanks to Hensel's lifting lemma, this also works\n            // in modular arithmetic, doubling the correct bits in each step.\n            inverse *= 2 - denominator * inverse; // inverse mod 2^8\n            inverse *= 2 - denominator * inverse; // inverse mod 2^16\n            inverse *= 2 - denominator * inverse; // inverse mod 2^32\n            inverse *= 2 - denominator * inverse; // inverse mod 2^64\n            inverse *= 2 - denominator * inverse; // inverse mod 2^128\n            inverse *= 2 - denominator * inverse; // inverse mod 2^256\n\n            // Because the division is now exact we can divide by multiplying with the modular inverse of denominator.\n            // This will give us the correct result modulo 2^256. Since the preconditions guarantee that the outcome is\n            // less than 2^256, this is the final result. We don't need to compute the high bits of the result and prod1\n            // is no longer required.\n            result = prod0 * inverse;\n            return result;\n        }\n    }\n\n    /**\n     * @notice Calculates x * y / denominator with full precision, following the selected rounding direction.\n     */\n    function mulDiv(uint256 x, uint256 y, uint256 denominator, Rounding rounding) internal pure returns (uint256) {\n        uint256 result = mulDiv(x, y, denominator);\n        if (rounding == Rounding.Up && mulmod(x, y, denominator) > 0) {\n            result += 1;\n        }\n        return result;\n    }\n\n    /**\n     * @dev Returns the square root of a number. If the number is not a perfect square, the value is rounded down.\n     *\n     * Inspired by Henry S. Warren, Jr.'s \"Hacker's Delight\" (Chapter 11).\n     */\n    function sqrt(uint256 a) internal pure returns (uint256) {\n        if (a == 0) {\n            return 0;\n        }\n\n        // For our first guess, we get the biggest power of 2 which is smaller than the square root of the target.\n        //\n        // We know that the \"msb\" (most significant bit) of our target number `a` is a power of 2 such that we have\n        // `msb(a) <= a < 2*msb(a)`. This value can be written `msb(a)=2**k` with `k=log2(a)`.\n        //\n        // This can be rewritten `2**log2(a) <= a < 2**(log2(a) + 1)`\n        // → `sqrt(2**k) <= sqrt(a) < sqrt(2**(k+1))`\n        // → `2**(k/2) <= sqrt(a) < 2**((k+1)/2) <= 2**(k/2 + 1)`\n        //\n        // Consequently, `2**(log2(a) / 2)` is a good first approximation of `sqrt(a)` with at least 1 correct bit.\n        uint256 result = 1 << (log2(a) >> 1);\n\n        // At this point `result` is an estimation with one bit of precision. We know the true value is a uint128,\n        // since it is the square root of a uint256. Newton's method converges quadratically (precision doubles at\n        // every iteration). We thus need at most 7 iteration to turn our partial result with one bit of precision\n        // into the expected uint128 result.\n        unchecked {\n            result = (result + a / result) >> 1;\n            result = (result + a / result) >> 1;\n            result = (result + a / result) >> 1;\n            result = (result + a / result) >> 1;\n            result = (result + a / result) >> 1;\n            result = (result + a / result) >> 1;\n            result = (result + a / result) >> 1;\n            return min(result, a / result);\n        }\n    }\n\n    /**\n     * @notice Calculates sqrt(a), following the selected rounding direction.\n     */\n    function sqrt(uint256 a, Rounding rounding) internal pure returns (uint256) {\n        unchecked {\n            uint256 result = sqrt(a);\n            return result + (rounding == Rounding.Up && result * result < a ? 1 : 0);\n        }\n    }\n\n    /**\n     * @dev Return the log in base 2, rounded down, of a positive value.\n     * Returns 0 if given 0.\n     */\n    function log2(uint256 value) internal pure returns (uint256) {\n        uint256 result = 0;\n        unchecked {\n            if (value >> 128 > 0) {\n                value >>= 128;\n                result += 128;\n            }\n            if (value >> 64 > 0) {\n                value >>= 64;\n                result += 64;\n            }\n            if (value >> 32 > 0) {\n                value >>= 32;\n                result += 32;\n            }\n            if (value >> 16 > 0) {\n                value >>= 16;\n                result += 16;\n            }\n            if (value >> 8 > 0) {\n                value >>= 8;\n                result += 8;\n            }\n            if (value >> 4 > 0) {\n                value >>= 4;\n                result += 4;\n            }\n            if (value >> 2 > 0) {\n                value >>= 2;\n                result += 2;\n            }\n            if (value >> 1 > 0) {\n                result += 1;\n            }\n        }\n        return result;\n    }\n\n    /**\n     * @dev Return the log in base 2, following the selected rounding direction, of a positive value.\n     * Returns 0 if given 0.\n     */\n    function log2(uint256 value, Rounding rounding) internal pure returns (uint256) {\n        unchecked {\n            uint256 result = log2(value);\n            return result + (rounding == Rounding.Up && 1 << result < value ? 1 : 0);\n        }\n    }\n\n    /**\n     * @dev Return the log in base 10, rounded down, of a positive value.\n     * Returns 0 if given 0.\n     */\n    function log10(uint256 value) internal pure returns (uint256) {\n        uint256 result = 0;\n        unchecked {\n            if (value >= 10 ** 64) {\n                value /= 10 ** 64;\n                result += 64;\n            }\n            if (value >= 10 ** 32) {\n                value /= 10 ** 32;\n                result += 32;\n            }\n            if (value >= 10 ** 16) {\n                value /= 10 ** 16;\n                result += 16;\n            }\n            if (value >= 10 ** 8) {\n                value /= 10 ** 8;\n                result += 8;\n            }\n            if (value >= 10 ** 4) {\n                value /= 10 ** 4;\n                result += 4;\n            }\n            if (value >= 10 ** 2) {\n                value /= 10 ** 2;\n                result += 2;\n            }\n            if (value >= 10 ** 1) {\n                result += 1;\n            }\n        }\n        return result;\n    }\n\n    /**\n     * @dev Return the log in base 10, following the selected rounding direction, of a positive value.\n     * Returns 0 if given 0.\n     */\n    function log10(uint256 value, Rounding rounding) internal pure returns (uint256) {\n        unchecked {\n            uint256 result = log10(value);\n            return result + (rounding == Rounding.Up && 10 ** result < value ? 1 : 0);\n        }\n    }\n\n    /**\n     * @dev Return the log in base 256, rounded down, of a positive value.\n     * Returns 0 if given 0.\n     *\n     * Adding one to the result gives the number of pairs of hex symbols needed to represent `value` as a hex string.\n     */\n    function log256(uint256 value) internal pure returns (uint256) {\n        uint256 result = 0;\n        unchecked {\n            if (value >> 128 > 0) {\n                value >>= 128;\n                result += 16;\n            }\n            if (value >> 64 > 0) {\n                value >>= 64;\n                result += 8;\n            }\n            if (value >> 32 > 0) {\n                value >>= 32;\n                result += 4;\n            }\n            if (value >> 16 > 0) {\n                value >>= 16;\n                result += 2;\n            }\n            if (value >> 8 > 0) {\n                result += 1;\n            }\n        }\n        return result;\n    }\n\n    /**\n     * @dev Return the log in base 256, following the selected rounding direction, of a positive value.\n     * Returns 0 if given 0.\n     */\n    function log256(uint256 value, Rounding rounding) internal pure returns (uint256) {\n        unchecked {\n            uint256 result = log256(value);\n            return result + (rounding == Rounding.Up && 1 << (result << 3) < value ? 1 : 0);\n        }\n    }\n}\n\n// lib/optimism/packages/contracts-bedrock/src/libraries/rlp/RLPReader.sol\n\n/// @custom:attribution https://github.com/hamdiallam/Solidity-RLP\n/// @title RLPReader\n/// @notice RLPReader is a library for parsing RLP-encoded byte arrays into Solidity types. Adapted\n///         from Solidity-RLP (https://github.com/hamdiallam/Solidity-RLP) by Hamdi Allam with\n///         various tweaks to improve readability.\nlibrary RLPReader {\n    /// @notice Custom pointer type to avoid confusion between pointers and uint256s.\n    type MemoryPointer is uint256;\n\n    /// @notice RLP item types.\n    /// @custom:value DATA_ITEM Represents an RLP data item (NOT a list).\n    /// @custom:value LIST_ITEM Represents an RLP list item.\n    enum RLPItemType {\n        DATA_ITEM,\n        LIST_ITEM\n    }\n\n    /// @notice Struct representing an RLP item.\n    /// @custom:field length Length of the RLP item.\n    /// @custom:field ptr    Pointer to the RLP item in memory.\n    struct RLPItem {\n        uint256 length;\n        MemoryPointer ptr;\n    }\n\n    /// @notice Max list length that this library will accept.\n    uint256 internal constant MAX_LIST_LENGTH = 32;\n\n    /// @notice Converts bytes to a reference to memory position and length.\n    /// @param _in Input bytes to convert.\n    /// @return out_ Output memory reference.\n    function toRLPItem(bytes memory _in) internal pure returns (RLPItem memory out_) {\n        // Empty arrays are not RLP items.\n        require(_in.length > 0, \"RLPReader: length of an RLP item must be greater than zero to be decodable\");\n\n        MemoryPointer ptr;\n        assembly {\n            ptr := add(_in, 32)\n        }\n\n        out_ = RLPItem({ length: _in.length, ptr: ptr });\n    }\n\n    /// @notice Reads an RLP list value into a list of RLP items.\n    /// @param _in RLP list value.\n    /// @return out_ Decoded RLP list items.\n    function readList(RLPItem memory _in) internal pure returns (RLPItem[] memory out_) {\n        (uint256 listOffset, uint256 listLength, RLPItemType itemType) = _decodeLength(_in);\n\n        require(itemType == RLPItemType.LIST_ITEM, \"RLPReader: decoded item type for list is not a list item\");\n\n        require(listOffset + listLength == _in.length, \"RLPReader: list item has an invalid data remainder\");\n\n        // Solidity in-memory arrays can't be increased in size, but *can* be decreased in size by\n        // writing to the length. Since we can't know the number of RLP items without looping over\n        // the entire input, we'd have to loop twice to accurately size this array. It's easier to\n        // simply set a reasonable maximum list length and decrease the size before we finish.\n        out_ = new RLPItem[](MAX_LIST_LENGTH);\n\n        uint256 itemCount = 0;\n        uint256 offset = listOffset;\n        while (offset < _in.length) {\n            (uint256 itemOffset, uint256 itemLength,) = _decodeLength(\n                RLPItem({ length: _in.length - offset, ptr: MemoryPointer.wrap(MemoryPointer.unwrap(_in.ptr) + offset) })\n            );\n\n            // We don't need to check itemCount < out.length explicitly because Solidity already\n            // handles this check on our behalf, we'd just be wasting gas.\n            out_[itemCount] = RLPItem({\n                length: itemLength + itemOffset,\n                ptr: MemoryPointer.wrap(MemoryPointer.unwrap(_in.ptr) + offset)\n            });\n\n            itemCount += 1;\n            offset += itemOffset + itemLength;\n        }\n\n        // Decrease the array size to match the actual item count.\n        assembly {\n            mstore(out_, itemCount)\n        }\n    }\n\n    /// @notice Reads an RLP list value into a list of RLP items.\n    /// @param _in RLP list value.\n    /// @return out_ Decoded RLP list items.\n    function readList(bytes memory _in) internal pure returns (RLPItem[] memory out_) {\n        out_ = readList(toRLPItem(_in));\n    }\n\n    /// @notice Reads an RLP bytes value into bytes.\n    /// @param _in RLP bytes value.\n    /// @return out_ Decoded bytes.\n    function readBytes(RLPItem memory _in) internal pure returns (bytes memory out_) {\n        (uint256 itemOffset, uint256 itemLength, RLPItemType itemType) = _decodeLength(_in);\n\n        require(itemType == RLPItemType.DATA_ITEM, \"RLPReader: decoded item type for bytes is not a data item\");\n\n        require(_in.length == itemOffset + itemLength, \"RLPReader: bytes value contains an invalid remainder\");\n\n        out_ = _copy(_in.ptr, itemOffset, itemLength);\n    }\n\n    /// @notice Reads an RLP bytes value into bytes.\n    /// @param _in RLP bytes value.\n    /// @return out_ Decoded bytes.\n    function readBytes(bytes memory _in) internal pure returns (bytes memory out_) {\n        out_ = readBytes(toRLPItem(_in));\n    }\n\n    /// @notice Reads the raw bytes of an RLP item.\n    /// @param _in RLP item to read.\n    /// @return out_ Raw RLP bytes.\n    function readRawBytes(RLPItem memory _in) internal pure returns (bytes memory out_) {\n        out_ = _copy(_in.ptr, 0, _in.length);\n    }\n\n    /// @notice Decodes the length of an RLP item.\n    /// @param _in RLP item to decode.\n    /// @return offset_ Offset of the encoded data.\n    /// @return length_ Length of the encoded data.\n    /// @return type_ RLP item type (LIST_ITEM or DATA_ITEM).\n    function _decodeLength(RLPItem memory _in)\n        private\n        pure\n        returns (uint256 offset_, uint256 length_, RLPItemType type_)\n    {\n        // Short-circuit if there's nothing to decode, note that we perform this check when\n        // the user creates an RLP item via toRLPItem, but it's always possible for them to bypass\n        // that function and create an RLP item directly. So we need to check this anyway.\n        require(_in.length > 0, \"RLPReader: length of an RLP item must be greater than zero to be decodable\");\n\n        MemoryPointer ptr = _in.ptr;\n        uint256 prefix;\n        assembly {\n            prefix := byte(0, mload(ptr))\n        }\n\n        if (prefix <= 0x7f) {\n            // Single byte.\n            return (0, 1, RLPItemType.DATA_ITEM);\n        } else if (prefix <= 0xb7) {\n            // Short string.\n\n            // slither-disable-next-line variable-scope\n            uint256 strLen = prefix - 0x80;\n\n            require(\n                _in.length > strLen, \"RLPReader: length of content must be greater than string length (short string)\"\n            );\n\n            bytes1 firstByteOfContent;\n            assembly {\n                firstByteOfContent := and(mload(add(ptr, 1)), shl(248, 0xff))\n            }\n\n            require(\n                strLen != 1 || firstByteOfContent >= 0x80,\n                \"RLPReader: invalid prefix, single byte < 0x80 are not prefixed (short string)\"\n            );\n\n            return (1, strLen, RLPItemType.DATA_ITEM);\n        } else if (prefix <= 0xbf) {\n            // Long string.\n            uint256 lenOfStrLen = prefix - 0xb7;\n\n            require(\n                _in.length > lenOfStrLen,\n                \"RLPReader: length of content must be > than length of string length (long string)\"\n            );\n\n            bytes1 firstByteOfContent;\n            assembly {\n                firstByteOfContent := and(mload(add(ptr, 1)), shl(248, 0xff))\n            }\n\n            require(\n                firstByteOfContent != 0x00, \"RLPReader: length of content must not have any leading zeros (long string)\"\n            );\n\n            uint256 strLen;\n            assembly {\n                strLen := shr(sub(256, mul(8, lenOfStrLen)), mload(add(ptr, 1)))\n            }\n\n            require(strLen > 55, \"RLPReader: length of content must be greater than 55 bytes (long string)\");\n\n            require(\n                _in.length > lenOfStrLen + strLen,\n                \"RLPReader: length of content must be greater than total length (long string)\"\n            );\n\n            return (1 + lenOfStrLen, strLen, RLPItemType.DATA_ITEM);\n        } else if (prefix <= 0xf7) {\n            // Short list.\n            // slither-disable-next-line variable-scope\n            uint256 listLen = prefix - 0xc0;\n\n            require(_in.length > listLen, \"RLPReader: length of content must be greater than list length (short list)\");\n\n            return (1, listLen, RLPItemType.LIST_ITEM);\n        } else {\n            // Long list.\n            uint256 lenOfListLen = prefix - 0xf7;\n\n            require(\n                _in.length > lenOfListLen,\n                \"RLPReader: length of content must be > than length of list length (long list)\"\n            );\n\n            bytes1 firstByteOfContent;\n            assembly {\n                firstByteOfContent := and(mload(add(ptr, 1)), shl(248, 0xff))\n            }\n\n            require(\n                firstByteOfContent != 0x00, \"RLPReader: length of content must not have any leading zeros (long list)\"\n            );\n\n            uint256 listLen;\n            assembly {\n                listLen := shr(sub(256, mul(8, lenOfListLen)), mload(add(ptr, 1)))\n            }\n\n            require(listLen > 55, \"RLPReader: length of content must be greater than 55 bytes (long list)\");\n\n            require(\n                _in.length > lenOfListLen + listLen,\n                \"RLPReader: length of content must be greater than total length (long list)\"\n            );\n\n            return (1 + lenOfListLen, listLen, RLPItemType.LIST_ITEM);\n        }\n    }\n\n    /// @notice Copies the bytes from a memory location.\n    /// @param _src    Pointer to the location to read from.\n    /// @param _offset Offset to start reading from.\n    /// @param _length Number of bytes to read.\n    /// @return out_ Copied bytes.\n    function _copy(MemoryPointer _src, uint256 _offset, uint256 _length) private pure returns (bytes memory out_) {\n        out_ = new bytes(_length);\n        if (_length == 0) {\n            return out_;\n        }\n\n        // Mostly based on Solidity's copy_memory_to_memory:\n        // solhint-disable max-line-length\n        // https://github.com/ethereum/solidity/blob/34dd30d71b4da730488be72ff6af7083cf2a91f6/libsolidity/codegen/YulUtilFunctions.cpp#L102-L114\n        uint256 src = MemoryPointer.unwrap(_src) + _offset;\n        assembly {\n            let dest := add(out_, 32)\n            let i := 0\n            for { } lt(i, _length) { i := add(i, 32) } { mstore(add(dest, i), mload(add(src, i))) }\n\n            if gt(i, _length) { mstore(add(dest, _length), 0) }\n        }\n    }\n}\n\n// lib/openzeppelin-contracts/contracts/utils/math/SignedMath.sol\n\n// OpenZeppelin Contracts (last updated v4.8.0) (utils/math/SignedMath.sol)\n\n/**\n * @dev Standard signed math utilities missing in the Solidity language.\n */\nlibrary SignedMath {\n    /**\n     * @dev Returns the largest of two signed numbers.\n     */\n    function max(int256 a, int256 b) internal pure returns (int256) {\n        return a > b ? a : b;\n    }\n\n    /**\n     * @dev Returns the smallest of two signed numbers.\n     */\n    function min(int256 a, int256 b) internal pure returns (int256) {\n        return a < b ? a : b;\n    }\n\n    /**\n     * @dev Returns the average of two signed numbers without overflow.\n     * The result is rounded towards zero.\n     */\n    function average(int256 a, int256 b) internal pure returns (int256) {\n        // Formula from the book \"Hacker's Delight\"\n        int256 x = (a & b) + ((a ^ b) >> 1);\n        return x + (int256(uint256(x) >> 255) & (a ^ b));\n    }\n\n    /**\n     * @dev Returns the absolute unsigned value of a signed value.\n     */\n    function abs(int256 n) internal pure returns (uint256) {\n        unchecked {\n            // must be unchecked in order to support `n = type(int256).min`\n            return uint256(n >= 0 ? n : -n);\n        }\n    }\n}\n\n// contracts/libs/ReceiptParser.sol\n\n/*\n * Copyright 2024, Polymer Labs\n *\n * Licensed under the Apache License, Version 2.0 (the \"License\");\n * you may not use this file except in compliance with the License.\n * You may obtain a copy of the License at\n *\n *    http://www.apache.org/licenses/LICENSE-2.0\n *\n * Unless required by applicable law or agreed to in writing, software\n * distributed under the License is distributed on an \"AS IS\" BASIS,\n * WITHOUT WARRANTIES OR CONDITIONS OF ANY KIND, either express or implied.\n * See the License for the specific language governing permissions and\n * limitations under the License.\n */\n\n// OpIcs23ProofPath represents a commitment path in an ICS23 proof, which consists of a commitment prefix and a suffix.\nstruct OpIcs23ProofPath {\n    bytes prefix;\n    bytes suffix;\n}\n\n// OpIcs23Proof represents an ICS23 proof\nstruct OpIcs23Proof {\n    OpIcs23ProofPath[] path;\n    bytes key;\n    bytes value;\n    bytes prefix;\n}\n\n// the Ics23 proof related structs are used to do membership verification. These are not the actual Ics23\n// format but a \"solidity friendly\" version of it - data is the same just packaged differently\nstruct Ics23Proof {\n    OpIcs23Proof[] proof;\n    uint256 height;\n}\n\n// This is the proof we use to verify the apphash (state) updates.\nstruct OpL2StateProof {\n    bytes[] accountProof;\n    bytes[] outputRootProof;\n    bytes32 l2OutputProposalKey;\n    bytes32 l2BlockHash;\n}\n\n/**\n * A library for helpers for proving peptide state\n */\nlibrary ReceiptParser {\n    error invalidAddressBytes();\n\n    function toStr(uint256 _number) public pure returns (string memory outStr) {\n        if (_number == 0) {\n            return \"0\";\n        }\n\n        uint256 length;\n        uint256 number = _number;\n\n        // Determine the length of the string\n        while (number != 0) {\n            length++;\n            number /= 10;\n        }\n\n        bytes memory buffer = new bytes(length);\n\n        // Convert each digit to its ASCII representation\n        for (uint256 i = length; i > 0; i--) {\n            buffer[i - 1] = bytes1(uint8(48 + (_number % 10)));\n            _number /= 10;\n        }\n\n        outStr = string(buffer);\n    }\n\n    function bytesToAddr(bytes memory a) public pure returns (address addr) {\n        if (a.length != 20) {\n            revert invalidAddressBytes();\n        }\n        assembly {\n            addr := mload(add(a, 20))\n        }\n    }\n\n    function parseLog(uint256 logIndex, bytes memory receiptRLP)\n        internal\n        pure\n        returns (address emittingContract, bytes[] memory topics, bytes memory unindexedData)\n    {\n        // The first byte is a RLP encoded receipt type so slice it off.\n        uint8 typeByte;\n        assembly {\n            typeByte := byte(0, mload(add(receiptRLP, 32)))\n        }\n        if (typeByte < 0x80) {\n            // Typed receipt: strip the type byte\n            receiptRLP = Bytes.slice(receiptRLP, 1, receiptRLP.length - 1);\n        }\n\n        RLPReader.RLPItem[] memory receipt = RLPReader.readList(receiptRLP);\n        /*\n            // RLP encoded receipt has the following structure. Logs are the 4th RLP list item.\n            type ReceiptRLP struct {\n                    PostStateOrStatus []byte\n                   CumulativeGasUsed uint64\n                    Bloom             Bloom\n                    Logs              []*Log\n            }\n        */\n\n        // Each log itself is an rlp encoded datatype of 3 properties:\n        // type Log struct {\n        //         senderAddress bytes // contract address where this log was emitted from\n        //         topics bytes        // Array of indexed topics. The first element is the 32-byte selector of the\n        // event (can use TransmitToHouston.selector), and the following  elements in this array are the abi encoded\n        // arguments individually\n        //         topics data         // abi encoded raw bytes of unindexed data\n        // }\n        RLPReader.RLPItem[] memory log = RLPReader.readList(RLPReader.readList(receipt[3])[logIndex]);\n\n        emittingContract = bytesToAddr(RLPReader.readBytes(log[0]));\n\n        RLPReader.RLPItem[] memory encodedTopics = RLPReader.readList(log[1]);\n        unindexedData = (RLPReader.readBytes(log[2])); // This is the raw unindexed data. in this case it's\n        // just an abi encoded uint64\n\n        topics = new bytes[](encodedTopics.length);\n        for (uint256 i = 0; i < encodedTopics.length; i++) {\n            topics[i] = RLPReader.readBytes(encodedTopics[i]);\n        }\n    }\n\n    function receiptRootKey(string memory chainId, string memory clientType, uint256 height)\n        internal\n        pure\n        returns (bytes memory proofKey)\n    {\n        proofKey = abi.encodePacked(\"chain/\", chainId, \"/storedReceipts/\", clientType, \"/receiptRoot/\", toStr(height));\n    }\n\n    function eventRootKey(uint32 chainId, string memory clientType, uint256 height, uint16 receiptIndex, uint8 logIndex)\n        internal\n        pure\n        returns (bytes memory proofKey)\n    {\n        // TODO actually change this to the decided structure\n        return abi.encodePacked(\n            \"chain/\",\n            toStr(uint256(chainId)),\n            \"/storedLogs/\",\n            clientType,\n            \"/\",\n            toStr(height),\n            \"/\",\n            toStr(receiptIndex),\n            \"/\",\n            toStr(logIndex)\n        );\n    }\n}\n\n// lib/openzeppelin-contracts/contracts/utils/Strings.sol\n\n// OpenZeppelin Contracts (last updated v4.9.0) (utils/Strings.sol)\n\n/**\n * @dev String operations.\n */\nlibrary Strings {\n    bytes16 private constant _SYMBOLS = \"0123456789abcdef\";\n    uint8 private constant _ADDRESS_LENGTH = 20;\n\n    /**\n     * @dev Converts a `uint256` to its ASCII `string` decimal representation.\n     */\n    function toString(uint256 value) internal pure returns (string memory) {\n        unchecked {\n            uint256 length = Math.log10(value) + 1;\n            string memory buffer = new string(length);\n            uint256 ptr;\n            /// @solidity memory-safe-assembly\n            assembly {\n                ptr := add(buffer, add(32, length))\n            }\n            while (true) {\n                ptr--;\n                /// @solidity memory-safe-assembly\n                assembly {\n                    mstore8(ptr, byte(mod(value, 10), _SYMBOLS))\n                }\n                value /= 10;\n                if (value == 0) break;\n            }\n            return buffer;\n        }\n    }\n\n    /**\n     * @dev Converts a `int256` to its ASCII `string` decimal representation.\n     */\n    function toString(int256 value) internal pure returns (string memory) {\n        return string(abi.encodePacked(value < 0 ? \"-\" : \"\", toString(SignedMath.abs(value))));\n    }\n\n    /**\n     * @dev Converts a `uint256` to its ASCII `string` hexadecimal representation.\n     */\n    function toHexString(uint256 value) internal pure returns (string memory) {\n        unchecked {\n            return toHexString(value, Math.log256(value) + 1);\n        }\n    }\n\n    /**\n     * @dev Converts a `uint256` to its ASCII `string` hexadecimal representation with fixed length.\n     */\n    function toHexString(uint256 value, uint256 length) internal pure returns (string memory) {\n        bytes memory buffer = new bytes(2 * length + 2);\n        buffer[0] = \"0\";\n        buffer[1] = \"x\";\n        for (uint256 i = 2 * length + 1; i > 1; --i) {\n            buffer[i] = _SYMBOLS[value & 0xf];\n            value >>= 4;\n        }\n        require(value == 0, \"Strings: hex length insufficient\");\n        return string(buffer);\n    }\n\n    /**\n     * @dev Converts an `address` with fixed length of 20 bytes to its not checksummed ASCII `string` hexadecimal representation.\n     */\n    function toHexString(address addr) internal pure returns (string memory) {\n        return toHexString(uint256(uint160(addr)), _ADDRESS_LENGTH);\n    }\n\n    /**\n     * @dev Returns true if the two strings are equal.\n     */\n    function equal(string memory a, string memory b) internal pure returns (bool) {\n        return keccak256(bytes(a)) == keccak256(bytes(b));\n    }\n}\n\n// lib/openzeppelin-contracts/contracts/utils/cryptography/ECDSA.sol\n\n// OpenZeppelin Contracts (last updated v4.9.0) (utils/cryptography/ECDSA.sol)\n\n/**\n * @dev Elliptic Curve Digital Signature Algorithm (ECDSA) operations.\n *\n * These functions can be used to verify that a message was signed by the holder\n * of the private keys of a given address.\n */\nlibrary ECDSA {\n    enum RecoverError {\n        NoError,\n        InvalidSignature,\n        InvalidSignatureLength,\n        InvalidSignatureS,\n        InvalidSignatureV // Deprecated in v4.8\n    }\n\n    function _throwError(RecoverError error) private pure {\n        if (error == RecoverError.NoError) {\n            return; // no error: do nothing\n        } else if (error == RecoverError.InvalidSignature) {\n            revert(\"ECDSA: invalid signature\");\n        } else if (error == RecoverError.InvalidSignatureLength) {\n            revert(\"ECDSA: invalid signature length\");\n        } else if (error == RecoverError.InvalidSignatureS) {\n            revert(\"ECDSA: invalid signature 's' value\");\n        }\n    }\n\n    /**\n     * @dev Returns the address that signed a hashed message (`hash`) with\n     * `signature` or error string. This address can then be used for verification purposes.\n     *\n     * The `ecrecover` EVM opcode allows for malleable (non-unique) signatures:\n     * this function rejects them by requiring the `s` value to be in the lower\n     * half order, and the `v` value to be either 27 or 28.\n     *\n     * IMPORTANT: `hash` _must_ be the result of a hash operation for the\n     * verification to be secure: it is possible to craft signatures that\n     * recover to arbitrary addresses for non-hashed data. A safe way to ensure\n     * this is by receiving a hash of the original message (which may otherwise\n     * be too long), and then calling {toEthSignedMessageHash} on it.\n     *\n     * Documentation for signature generation:\n     * - with https://web3js.readthedocs.io/en/v1.3.4/web3-eth-accounts.html#sign[Web3.js]\n     * - with https://docs.ethers.io/v5/api/signer/#Signer-signMessage[ethers]\n     *\n     * _Available since v4.3._\n     */\n    function tryRecover(bytes32 hash, bytes memory signature) internal pure returns (address, RecoverError) {\n        if (signature.length == 65) {\n            bytes32 r;\n            bytes32 s;\n            uint8 v;\n            // ecrecover takes the signature parameters, and the only way to get them\n            // currently is to use assembly.\n            /// @solidity memory-safe-assembly\n            assembly {\n                r := mload(add(signature, 0x20))\n                s := mload(add(signature, 0x40))\n                v := byte(0, mload(add(signature, 0x60)))\n            }\n            return tryRecover(hash, v, r, s);\n        } else {\n            return (address(0), RecoverError.InvalidSignatureLength);\n        }\n    }\n\n    /**\n     * @dev Returns the address that signed a hashed message (`hash`) with\n     * `signature`. This address can then be used for verification purposes.\n     *\n     * The `ecrecover` EVM opcode allows for malleable (non-unique) signatures:\n     * this function rejects them by requiring the `s` value to be in the lower\n     * half order, and the `v` value to be either 27 or 28.\n     *\n     * IMPORTANT: `hash` _must_ be the result of a hash operation for the\n     * verification to be secure: it is possible to craft signatures that\n     * recover to arbitrary addresses for non-hashed data. A safe way to ensure\n     * this is by receiving a hash of the original message (which may otherwise\n     * be too long), and then calling {toEthSignedMessageHash} on it.\n     */\n    function recover(bytes32 hash, bytes memory signature) internal pure returns (address) {\n        (address recovered, RecoverError error) = tryRecover(hash, signature);\n        _throwError(error);\n        return recovered;\n    }\n\n    /**\n     * @dev Overload of {ECDSA-tryRecover} that receives the `r` and `vs` short-signature fields separately.\n     *\n     * See https://eips.ethereum.org/EIPS/eip-2098[EIP-2098 short signatures]\n     *\n     * _Available since v4.3._\n     */\n    function tryRecover(bytes32 hash, bytes32 r, bytes32 vs) internal pure returns (address, RecoverError) {\n        bytes32 s = vs & bytes32(0x7fffffffffffffffffffffffffffffffffffffffffffffffffffffffffffffff);\n        uint8 v = uint8((uint256(vs) >> 255) + 27);\n        return tryRecover(hash, v, r, s);\n    }\n\n    /**\n     * @dev Overload of {ECDSA-recover} that receives the `r and `vs` short-signature fields separately.\n     *\n     * _Available since v4.2._\n     */\n    function recover(bytes32 hash, bytes32 r, bytes32 vs) internal pure returns (address) {\n        (address recovered, RecoverError error) = tryRecover(hash, r, vs);\n        _throwError(error);\n        return recovered;\n    }\n\n    /**\n     * @dev Overload of {ECDSA-tryRecover} that receives the `v`,\n     * `r` and `s` signature fields separately.\n     *\n     * _Available since v4.3._\n     */\n    function tryRecover(bytes32 hash, uint8 v, bytes32 r, bytes32 s) internal pure returns (address, RecoverError) {\n        // EIP-2 still allows signature malleability for ecrecover(). Remove this possibility and make the signature\n        // unique. Appendix F in the Ethereum Yellow paper (https://ethereum.github.io/yellowpaper/paper.pdf), defines\n        // the valid range for s in (301): 0 < s < secp256k1n ÷ 2 + 1, and for v in (302): v ∈ {27, 28}. Most\n        // signatures from current libraries generate a unique signature with an s-value in the lower half order.\n        //\n        // If your library generates malleable signatures, such as s-values in the upper range, calculate a new s-value\n        // with 0xFFFFFFFFFFFFFFFFFFFFFFFFFFFFFFFEBAAEDCE6AF48A03BBFD25E8CD0364141 - s1 and flip v from 27 to 28 or\n        // vice versa. If your library also generates signatures with 0/1 for v instead 27/28, add 27 to v to accept\n        // these malleable signatures as well.\n        if (uint256(s) > 0x7FFFFFFFFFFFFFFFFFFFFFFFFFFFFFFF5D576E7357A4501DDFE92F46681B20A0) {\n            return (address(0), RecoverError.InvalidSignatureS);\n        }\n\n        // If the signature is valid (and not malleable), return the signer address\n        address signer = ecrecover(hash, v, r, s);\n        if (signer == address(0)) {\n            return (address(0), RecoverError.InvalidSignature);\n        }\n\n        return (signer, RecoverError.NoError);\n    }\n\n    /**\n     * @dev Overload of {ECDSA-recover} that receives the `v`,\n     * `r` and `s` signature fields separately.\n     */\n    function recover(bytes32 hash, uint8 v, bytes32 r, bytes32 s) internal pure returns (address) {\n        (address recovered, RecoverError error) = tryRecover(hash, v, r, s);\n        _throwError(error);\n        return recovered;\n    }\n\n    /**\n     * @dev Returns an Ethereum Signed Message, created from a `hash`. This\n     * produces hash corresponding to the one signed with the\n     * https://eth.wiki/json-rpc/API#eth_sign[`eth_sign`]\n     * JSON-RPC method as part of EIP-191.\n     *\n     * See {recover}.\n     */\n    function toEthSignedMessageHash(bytes32 hash) internal pure returns (bytes32 message) {\n        // 32 is the length in bytes of hash,\n        // enforced by the type signature above\n        /// @solidity memory-safe-assembly\n        assembly {\n            mstore(0x00, \"\\x19Ethereum Signed Message:\\n32\")\n            mstore(0x1c, hash)\n            message := keccak256(0x00, 0x3c)\n        }\n    }\n\n    /**\n     * @dev Returns an Ethereum Signed Message, created from `s`. This\n     * produces hash corresponding to the one signed with the\n     * https://eth.wiki/json-rpc/API#eth_sign[`eth_sign`]\n     * JSON-RPC method as part of EIP-191.\n     *\n     * See {recover}.\n     */\n    function toEthSignedMessageHash(bytes memory s) internal pure returns (bytes32) {\n        return keccak256(abi.encodePacked(\"\\x19Ethereum Signed Message:\\n\", Strings.toString(s.length), s));\n    }\n\n    /**\n     * @dev Returns an Ethereum Signed Typed Data, created from a\n     * `domainSeparator` and a `structHash`. This produces hash corresponding\n     * to the one signed with the\n     * https://eips.ethereum.org/EIPS/eip-712[`eth_signTypedData`]\n     * JSON-RPC method as part of EIP-712.\n     *\n     * See {recover}.\n     */\n    function toTypedDataHash(bytes32 domainSeparator, bytes32 structHash) internal pure returns (bytes32 data) {\n        /// @solidity memory-safe-assembly\n        assembly {\n            let ptr := mload(0x40)\n            mstore(ptr, \"\\x19\\x01\")\n            mstore(add(ptr, 0x02), domainSeparator)\n            mstore(add(ptr, 0x22), structHash)\n            data := keccak256(ptr, 0x42)\n        }\n    }\n\n    /**\n     * @dev Returns an Ethereum Signed Data with intended validator, created from a\n     * `validator` and `data` according to the version 0 of EIP-191.\n     *\n     * See {recover}.\n     */\n    function toDataWithIntendedValidatorHash(address validator, bytes memory data) internal pure returns (bytes32) {\n        return keccak256(abi.encodePacked(\"\\x19\\x00\", validator, data));\n    }\n}\n\n// contracts/core/SequencerSignatureVerifierV2.sol\n\n/*\n * Copyright 2024, Polymer Labs\n *\n * Licensed under the Apache License, Version 2.0 (the \"License\");\n * you may not use this file except in compliance with the License.\n * You may obtain a copy of the License at\n *\n *    http://www.apache.org/licenses/LICENSE-2.0\n *\n * Unless required by applicable law or agreed to in writing, software\n * distributed under the License is distributed on an \"AS IS\" BASIS,\n * WITHOUT WARRANTIES OR CONDITIONS OF ANY KIND, either express or implied.\n * See the License for the specific language governing permissions and\n * limitations under the License.\n */\n\n/**\n * @title SequencerSignatureVerifierV2\n * @notice Verifies ECDSA signatures from a sequencer for client updates. Is used by the SequencerSoloClient to verify\n * signatures on client updates.\n * @author Polymer Labs\n */\ncontract SequencerSignatureVerifierV2 {\n    address public immutable SEQUENCER; // The trusted sequencer address that polymer p2p signer holds the private key\n        // to\n    bytes32 public immutable CHAIN_ID; // Chain ID of the L2 chain for which the sequencer signs over\n\n    error InvalidSequencerSignature();\n\n    constructor(address sequencer_, bytes32 chainId_) {\n        SEQUENCER = sequencer_;\n        CHAIN_ID = chainId_;\n    }\n\n    /**\n     * @notice Verify peptide sequencer signature over a given apphash\n     */\n    function _verifySequencerSignature(bytes32 appHash, uint64 peptideHeight, uint8 v, bytes32 r, bytes32 s)\n        internal\n        view\n    {\n        if (\n            ECDSA.recover(\n                keccak256(bytes.concat(bytes32(0), CHAIN_ID, keccak256(abi.encodePacked(appHash, peptideHeight)))),\n                bytes(abi.encodePacked(r, s, v))\n            ) != SEQUENCER\n        ) {\n            revert InvalidSequencerSignature();\n        }\n    }\n}\n\n// contracts/core/CrossL2ProverV2.sol\n\n/*\n * Copyright 2024, Polymer Labs\n *\n * Licensed under the Apache License, Version 2.0 (the \"License\");\n * you may not use this file except in compliance with the License.\n * You may obtain a copy of the License at\n *\n *    http://www.apache.org/licenses/LICENSE-2.0\n *\n * Unless required by applicable law or agreed to in writing, software\n * distributed under the License is distributed on an \"AS IS\" BASIS,\n * WITHOUT WARRANTIES OR CONDITIONS OF ANY KIND, either express or implied.\n * See the License for the specific language governing permissions and\n * limitations under the License.\n */\n\ncontract CrossL2ProverV2 is SequencerSignatureVerifierV2, ICrossL2ProverV2 {\n    LightClientType public constant LIGHT_CLIENT_TYPE = LightClientType.SequencerLightClient; // Stored as a constant\n        // for cheap on-chain use\n\n    string public clientType;\n\n    error InvalidProofKey();\n    error InvalidProofValue();\n    error InvalidProofRoot();\n\n    constructor(string memory clientType_, address sequencer_, bytes32 chainId_)\n        SequencerSignatureVerifierV2(sequencer_, chainId_)\n    {\n        clientType = clientType_;\n    }\n    //  +--------------------------------------------------+\n    //  |  state root (32 bytes)                           | 0:32\n    //  +--------------------------------------------------+\n    //  |  signature (65 bytes)                            | 32:97\n    //  +--------------------------------------------------+\n    //  |  source chain ID (big endian, 4 bytes)           | 97:101\n    //  +--------------------------------------------------+\n    //  |  peptide height (big endian, 8 bytes)            | 101:109\n    //  +--------------------------------------------------+\n    //  |  source chain block height (big endian, 8 bytes) | 109:117\n    //  +--------------------------------------------------+\n    //  |  receipt index (big endian, 2 bytes)             | 117:119\n    //  +--------------------------------------------------+\n    //  |  event index (1 byte)                            | 119\n    //  +--------------------------------------------------+\n    //  |  number of topics (1 byte)                       | 120\n    //  +--------------------------------------------------+\n    //  |  event data end (big endian, 2 bytes)            | 121:123\n    //  +--------------------------------------------------+\n    //  |  event emitter (contract address) (20 bytes)     | 123:143\n    //  +--------------------------------------------------+\n    //  |  topics (32 bytes * number of topics)            | 143 + 32 * number of topics: eventDatEnd\n    //  +--------------------------------------------------+\n    //  |  event data (x bytes)                            | eventDataEnd:\n    //  +--------------------------------------------------+\n    //  |  iavl proof (x bytes)                            |\n    //  +--------------------------------------------------+\n\n    function validateEvent(bytes calldata proof)\n        external\n        view\n        returns (uint32 chainId, address emittingContract, bytes memory topics, bytes memory unindexedData)\n    {\n        chainId = uint32(bytes4(proof[97:101]));\n        _verifySequencerSignature(\n            bytes32(proof[:32]),\n            uint64(bytes8(proof[101:109])),\n            uint8(proof[96]),\n            bytes32(proof[32:64]),\n            bytes32(proof[64:96])\n        );\n\n        uint256 eventEnd = uint16(bytes2(proof[121:123]));\n        bytes memory rawEvent = proof[123:eventEnd];\n        this.verifyMembership(\n            bytes32(proof[:32]),\n            ReceiptParser.eventRootKey(\n                chainId, clientType, uint64(bytes8(proof[109:117])), uint16(bytes2(proof[117:119])), uint8(proof[119])\n            ),\n            keccak256(rawEvent),\n            proof[eventEnd:]\n        );\n\n        (emittingContract, topics, unindexedData) = this.parseEvent(rawEvent, uint8(proof[120]));\n    }\n\n    function inspectLogIdentifier(bytes calldata proof)\n        external\n        pure\n        returns (uint32 srcChain, uint64 blockNumber, uint16 receiptIndex, uint8 logIndex)\n    {\n        return (\n            uint32(bytes4(proof[97:101])),\n            uint64(bytes8(proof[109:117])),\n            uint16(bytes2(proof[117:119])),\n            uint8(proof[119])\n        );\n    }\n\n    function inspectPolymerState(bytes calldata proof)\n        external\n        pure\n        returns (bytes32 stateRoot, uint64 height, bytes calldata signature)\n    {\n        return (bytes32(proof[:32]), uint64(bytes8(proof[101:109])), proof[32:97]);\n    }\n\n    /*\n    header: key start (abs) (2B), key end (abs) (2B), value start (abs) (2B), value end (abs) (2B), num paths (1B),\n    layer-0: prefix, varint(key.length), key, varint(hash(value).length), hash(value)\n    path-n: [header: suffix start (rel) (1B), suffix end (rel) (1B)],  path[n].prefix, path[n].suffix\n    */\n    function verifyMembership(bytes32 root, bytes memory key, bytes32 value, bytes calldata proof) public pure {\n        uint256 path0start = uint256(uint8(proof[1]));\n        bytes32 prehash = sha256(abi.encodePacked(proof[2:path0start], key, hex\"20\", sha256(abi.encodePacked(value))));\n        uint256 offset = path0start;\n\n        for (uint256 i = 0; i < uint256(uint8(proof[0])); i++) {\n            uint256 suffixstart = uint256(uint8(proof[offset]));\n            uint256 suffixend = uint256(uint8(proof[offset + 1]));\n\n            // add +2 to account for path header\n            prehash = sha256(\n                abi.encodePacked(\n                    proof[offset + 2:offset + suffixstart], prehash, proof[offset + suffixstart:offset + suffixend]\n                )\n            );\n\n            offset = offset + suffixend;\n        }\n\n        if (prehash != root) revert InvalidProofRoot();\n    }\n\n    function parseEvent(bytes calldata rawEvent, uint8 numTopics)\n        public\n        pure\n        returns (address emittingContract, bytes memory topics, bytes memory unindexedData)\n    {\n        uint256 topicsEnd = 32 * numTopics + 20;\n        return (address(bytes20(rawEvent[:20])), rawEvent[20:topicsEnd], rawEvent[topicsEnd:]);\n    }\n}\n",
  "sourcePath": "/Users/raunaksingh/Code/prover-contracts/tronbox/contracts/CrossL2ProverV2.sol",
  "compiler": {
    "name": "solc",
    "version": "0.8.18+commit.f18bedfe.Emscripten.clang"
  },
  "schemaVersion": "2.0.1",
  "updatedAt": "2025-06-02T18:06:31.873Z"
}